{
  "_format": "hh-sol-artifact-1",
  "contractName": "CandleAuction",
  "sourceName": "contracts/deepstack.sol",
  "abi": [
    {
      "inputs": [
        {
          "internalType": "address",
          "name": "_vrfCoordinator",
          "type": "address"
        },
        {
          "internalType": "bytes32",
          "name": "_keyHash",
          "type": "bytes32"
        },
        {
          "internalType": "uint256",
          "name": "_subscriptionId",
          "type": "uint256"
        },
        {
          "internalType": "uint32",
          "name": "_callbackGasLimit",
          "type": "uint32"
        },
        {
          "internalType": "uint16",
          "name": "_requestConfirmations",
          "type": "uint16"
        },
        {
          "internalType": "address",
          "name": "_nftContract",
          "type": "address"
        }
      ],
      "stateMutability": "nonpayable",
      "type": "constructor"
    },
    {
      "inputs": [
        {
          "internalType": "address",
          "name": "have",
          "type": "address"
        },
        {
          "internalType": "address",
          "name": "want",
          "type": "address"
        }
      ],
      "name": "OnlyCoordinatorCanFulfill",
      "type": "error"
    },
    {
      "inputs": [
        {
          "internalType": "address",
          "name": "have",
          "type": "address"
        },
        {
          "internalType": "address",
          "name": "owner",
          "type": "address"
        },
        {
          "internalType": "address",
          "name": "coordinator",
          "type": "address"
        }
      ],
      "name": "OnlyOwnerOrCoordinator",
      "type": "error"
    },
    {
      "inputs": [],
      "name": "ReentrancyGuardReentrantCall",
      "type": "error"
    },
    {
      "inputs": [],
      "name": "ZeroAddress",
      "type": "error"
    },
    {
      "anonymous": false,
      "inputs": [
        {
          "indexed": false,
          "internalType": "address",
          "name": "winner",
          "type": "address"
        },
        {
          "indexed": false,
          "internalType": "uint256",
          "name": "amount",
          "type": "uint256"
        },
        {
          "indexed": false,
          "internalType": "uint256",
          "name": "itemId",
          "type": "uint256"
        },
        {
          "indexed": false,
          "internalType": "string",
          "name": "itemName",
          "type": "string"
        }
      ],
      "name": "AuctionEnded",
      "type": "event"
    },
    {
      "anonymous": false,
      "inputs": [
        {
          "indexed": false,
          "internalType": "uint256",
          "name": "endTime",
          "type": "uint256"
        },
        {
          "indexed": false,
          "internalType": "uint256",
          "name": "itemId",
          "type": "uint256"
        },
        {
          "indexed": false,
          "internalType": "string",
          "name": "itemName",
          "type": "string"
        }
      ],
      "name": "AuctionStarted",
      "type": "event"
    },
    {
      "anonymous": false,
      "inputs": [
        {
          "indexed": false,
          "internalType": "address",
          "name": "vrfCoordinator",
          "type": "address"
        }
      ],
      "name": "CoordinatorSet",
      "type": "event"
    },
    {
      "anonymous": false,
      "inputs": [
        {
          "indexed": false,
          "internalType": "address",
          "name": "bidder",
          "type": "address"
        },
        {
          "indexed": false,
          "internalType": "uint256",
          "name": "amount",
          "type": "uint256"
        }
      ],
      "name": "HighestBidIncreased",
      "type": "event"
    },
    {
      "anonymous": false,
      "inputs": [
        {
          "indexed": false,
          "internalType": "uint256",
          "name": "itemId",
          "type": "uint256"
        },
        {
          "indexed": false,
          "internalType": "string",
          "name": "itemName",
          "type": "string"
        },
        {
          "indexed": false,
          "internalType": "string",
          "name": "itemURI",
          "type": "string"
        }
      ],
      "name": "ItemListed",
      "type": "event"
    },
    {
      "anonymous": false,
      "inputs": [
        {
          "indexed": true,
          "internalType": "address",
          "name": "from",
          "type": "address"
        },
        {
          "indexed": true,
          "internalType": "address",
          "name": "to",
          "type": "address"
        }
      ],
      "name": "OwnershipTransferRequested",
      "type": "event"
    },
    {
      "anonymous": false,
      "inputs": [
        {
          "indexed": true,
          "internalType": "address",
          "name": "from",
          "type": "address"
        },
        {
          "indexed": true,
          "internalType": "address",
          "name": "to",
          "type": "address"
        }
      ],
      "name": "OwnershipTransferred",
      "type": "event"
    },
    {
      "anonymous": false,
      "inputs": [
        {
          "indexed": false,
          "internalType": "uint256",
          "name": "requestId",
          "type": "uint256"
        },
        {
          "indexed": false,
          "internalType": "uint256[]",
          "name": "randomWords",
          "type": "uint256[]"
        }
      ],
      "name": "RequestFulfilled",
      "type": "event"
    },
    {
      "anonymous": false,
      "inputs": [
        {
          "indexed": false,
          "internalType": "uint256",
          "name": "requestId",
          "type": "uint256"
        },
        {
          "indexed": false,
          "internalType": "uint32",
          "name": "numWords",
          "type": "uint32"
        }
      ],
      "name": "RequestSent",
      "type": "event"
    },
    {
      "inputs": [],
      "name": "acceptOwnership",
      "outputs": [],
      "stateMutability": "nonpayable",
      "type": "function"
    },
    {
      "inputs": [
        {
          "internalType": "uint256",
          "name": "",
          "type": "uint256"
        }
      ],
      "name": "auctions",
      "outputs": [
        {
          "internalType": "uint256",
          "name": "startTime",
          "type": "uint256"
        },
        {
          "internalType": "uint256",
          "name": "endTime",
          "type": "uint256"
        },
        {
          "internalType": "bool",
          "name": "auctionEnded",
          "type": "bool"
        },
        {
          "internalType": "address",
          "name": "highestBidder",
          "type": "address"
        },
        {
          "internalType": "uint256",
          "name": "highestBid",
          "type": "uint256"
        }
      ],
      "stateMutability": "view",
      "type": "function"
    },
    {
      "inputs": [
        {
          "internalType": "uint256",
          "name": "_itemId",
          "type": "uint256"
        }
      ],
      "name": "bid",
      "outputs": [],
      "stateMutability": "payable",
      "type": "function"
    },
    {
      "inputs": [],
      "name": "callbackGasLimit",
      "outputs": [
        {
          "internalType": "uint32",
          "name": "",
          "type": "uint32"
        }
      ],
      "stateMutability": "view",
      "type": "function"
    },
    {
      "inputs": [
        {
          "internalType": "uint256",
          "name": "_itemId",
          "type": "uint256"
        }
      ],
      "name": "endAuction",
      "outputs": [],
      "stateMutability": "nonpayable",
      "type": "function"
    },
    {
      "inputs": [
        {
          "internalType": "uint256",
          "name": "_requestId",
          "type": "uint256"
        }
      ],
      "name": "getRequestStatus",
      "outputs": [
        {
          "internalType": "bool",
          "name": "fulfilled",
          "type": "bool"
        },
        {
          "internalType": "uint256[]",
          "name": "randomWords",
          "type": "uint256[]"
        }
      ],
      "stateMutability": "view",
      "type": "function"
    },
    {
      "inputs": [
        {
          "internalType": "uint256",
          "name": "_itemId",
          "type": "uint256"
        }
      ],
      "name": "getTimeRemaining",
      "outputs": [
        {
          "internalType": "uint256",
          "name": "timeRemaining",
          "type": "uint256"
        }
      ],
      "stateMutability": "view",
      "type": "function"
    },
    {
      "inputs": [
        {
          "internalType": "uint256",
          "name": "",
          "type": "uint256"
        }
      ],
      "name": "itemWinners",
      "outputs": [
        {
          "internalType": "address",
          "name": "",
          "type": "address"
        }
      ],
      "stateMutability": "view",
      "type": "function"
    },
    {
      "inputs": [
        {
          "internalType": "uint256",
          "name": "",
          "type": "uint256"
        }
      ],
      "name": "items",
      "outputs": [
        {
          "internalType": "uint256",
          "name": "itemId",
          "type": "uint256"
        },
        {
          "internalType": "string",
          "name": "itemName",
          "type": "string"
        },
        {
          "internalType": "string",
          "name": "itemURI",
          "type": "string"
        },
        {
          "internalType": "bool",
          "name": "isListed",
          "type": "bool"
        }
      ],
      "stateMutability": "view",
      "type": "function"
    },
    {
      "inputs": [],
      "name": "keyHash",
      "outputs": [
        {
          "internalType": "bytes32",
          "name": "",
          "type": "bytes32"
        }
      ],
      "stateMutability": "view",
      "type": "function"
    },
    {
      "inputs": [
        {
          "internalType": "string",
          "name": "_itemName",
          "type": "string"
        },
        {
          "internalType": "string",
          "name": "_itemURI",
          "type": "string"
        }
      ],
      "name": "listItem",
      "outputs": [],
      "stateMutability": "nonpayable",
      "type": "function"
    },
    {
      "inputs": [],
      "name": "nftContract",
      "outputs": [
        {
          "internalType": "contract NFT",
          "name": "",
          "type": "address"
        }
      ],
      "stateMutability": "view",
      "type": "function"
    },
    {
      "inputs": [],
      "name": "numWords",
      "outputs": [
        {
          "internalType": "uint32",
          "name": "",
          "type": "uint32"
        }
      ],
      "stateMutability": "view",
      "type": "function"
    },
    {
      "inputs": [
        {
          "internalType": "address",
          "name": "operator",
          "type": "address"
        },
        {
          "internalType": "address",
          "name": "from",
          "type": "address"
        },
        {
          "internalType": "uint256",
          "name": "tokenId",
          "type": "uint256"
        },
        {
          "internalType": "bytes",
          "name": "data",
          "type": "bytes"
        }
      ],
      "name": "onERC721Received",
      "outputs": [
        {
          "internalType": "bytes4",
          "name": "",
          "type": "bytes4"
        }
      ],
      "stateMutability": "nonpayable",
      "type": "function"
    },
    {
      "inputs": [],
      "name": "owner",
      "outputs": [
        {
          "internalType": "address",
          "name": "",
          "type": "address"
        }
      ],
      "stateMutability": "view",
      "type": "function"
    },
    {
      "inputs": [
        {
          "internalType": "uint256",
          "name": "requestId",
          "type": "uint256"
        },
        {
          "internalType": "uint256[]",
          "name": "randomWords",
          "type": "uint256[]"
        }
      ],
      "name": "rawFulfillRandomWords",
      "outputs": [],
      "stateMutability": "nonpayable",
      "type": "function"
    },
    {
      "inputs": [],
      "name": "requestConfirmations",
      "outputs": [
        {
          "internalType": "uint16",
          "name": "",
          "type": "uint16"
        }
      ],
      "stateMutability": "view",
      "type": "function"
    },
    {
      "inputs": [
        {
          "internalType": "uint256",
          "name": "",
          "type": "uint256"
        }
      ],
      "name": "requestIdToItemId",
      "outputs": [
        {
          "internalType": "uint256",
          "name": "",
          "type": "uint256"
        }
      ],
      "stateMutability": "view",
      "type": "function"
    },
    {
      "inputs": [
        {
          "internalType": "uint256",
          "name": "",
          "type": "uint256"
        }
      ],
      "name": "s_requests",
      "outputs": [
        {
          "internalType": "bool",
          "name": "fulfilled",
          "type": "bool"
        },
        {
          "internalType": "bool",
          "name": "exists",
          "type": "bool"
        }
      ],
      "stateMutability": "view",
      "type": "function"
    },
    {
      "inputs": [],
      "name": "s_subscriptionId",
      "outputs": [
        {
          "internalType": "uint256",
          "name": "",
          "type": "uint256"
        }
      ],
      "stateMutability": "view",
      "type": "function"
    },
    {
      "inputs": [],
      "name": "s_vrfCoordinator",
      "outputs": [
        {
          "internalType": "contract IVRFCoordinatorV2Plus",
          "name": "",
          "type": "address"
        }
      ],
      "stateMutability": "view",
      "type": "function"
    },
    {
      "inputs": [
        {
          "internalType": "address",
          "name": "_vrfCoordinator",
          "type": "address"
        }
      ],
      "name": "setCoordinator",
      "outputs": [],
      "stateMutability": "nonpayable",
      "type": "function"
    },
    {
      "inputs": [
        {
          "internalType": "uint256",
          "name": "_itemId",
          "type": "uint256"
        }
      ],
      "name": "startAuction",
      "outputs": [],
      "stateMutability": "nonpayable",
      "type": "function"
    },
    {
      "inputs": [
        {
          "internalType": "address",
          "name": "to",
          "type": "address"
        }
      ],
      "name": "transferOwnership",
      "outputs": [],
      "stateMutability": "nonpayable",
      "type": "function"
    },
    {
      "inputs": [
        {
          "internalType": "uint256",
          "name": "_itemId",
          "type": "uint256"
        }
      ],
      "name": "withdraw",
      "outputs": [
        {
          "internalType": "bool",
          "name": "",
          "type": "bool"
        }
      ],
      "stateMutability": "nonpayable",
      "type": "function"
    }
  ],
  "bytecode": "0x60806040523480156200001157600080fd5b5060405162003dfc38038062003dfc833981810160405281019062000037919062000532565b85338060008073ffffffffffffffffffffffffffffffffffffffff168273ffffffffffffffffffffffffffffffffffffffff1603620000ad576040517f08c379a0000000000000000000000000000000000000000000000000000000008152600401620000a4906200062f565b60405180910390fd5b816000806101000a81548173ffffffffffffffffffffffffffffffffffffffff021916908373ffffffffffffffffffffffffffffffffffffffff160217905550600073ffffffffffffffffffffffffffffffffffffffff168173ffffffffffffffffffffffffffffffffffffffff161462000134576200013381620002a360201b60201c565b5b505050600073ffffffffffffffffffffffffffffffffffffffff168173ffffffffffffffffffffffffffffffffffffffff16036200019e576040517fd92e233d00000000000000000000000000000000000000000000000000000000815260040160405180910390fd5b80600260006101000a81548173ffffffffffffffffffffffffffffffffffffffff021916908373ffffffffffffffffffffffffffffffffffffffff16021790555050600160038190555084600b8190555083600a8190555082600c60006101000a81548163ffffffff021916908363ffffffff16021790555081600c60046101000a81548161ffff021916908361ffff1602179055506001600c60066101000a81548163ffffffff021916908363ffffffff16021790555080600460006101000a81548173ffffffffffffffffffffffffffffffffffffffff021916908373ffffffffffffffffffffffffffffffffffffffff160217905550505050505050620006c3565b3373ffffffffffffffffffffffffffffffffffffffff168173ffffffffffffffffffffffffffffffffffffffff160362000314576040517f08c379a00000000000000000000000000000000000000000000000000000000081526004016200030b90620006a1565b60405180910390fd5b80600160006101000a81548173ffffffffffffffffffffffffffffffffffffffff021916908373ffffffffffffffffffffffffffffffffffffffff1602179055508073ffffffffffffffffffffffffffffffffffffffff1660008054906101000a900473ffffffffffffffffffffffffffffffffffffffff1673ffffffffffffffffffffffffffffffffffffffff167fed8889f560326eb138920d842192f0eb3dd22b4f139c87a2c57538e05bae127860405160405180910390a350565b600080fd5b600073ffffffffffffffffffffffffffffffffffffffff82169050919050565b60006200040482620003d7565b9050919050565b6200041681620003f7565b81146200042257600080fd5b50565b60008151905062000436816200040b565b92915050565b6000819050919050565b62000451816200043c565b81146200045d57600080fd5b50565b600081519050620004718162000446565b92915050565b6000819050919050565b6200048c8162000477565b81146200049857600080fd5b50565b600081519050620004ac8162000481565b92915050565b600063ffffffff82169050919050565b620004cd81620004b2565b8114620004d957600080fd5b50565b600081519050620004ed81620004c2565b92915050565b600061ffff82169050919050565b6200050c81620004f3565b81146200051857600080fd5b50565b6000815190506200052c8162000501565b92915050565b60008060008060008060c08789031215620005525762000551620003d2565b5b60006200056289828a0162000425565b96505060206200057589828a0162000460565b95505060406200058889828a016200049b565b94505060606200059b89828a01620004dc565b9350506080620005ae89828a016200051b565b92505060a0620005c189828a0162000425565b9150509295509295509295565b600082825260208201905092915050565b7f43616e6e6f7420736574206f776e657220746f207a65726f0000000000000000600082015250565b600062000617601883620005ce565b91506200062482620005df565b602082019050919050565b600060208201905081810360008301526200064a8162000608565b9050919050565b7f43616e6e6f74207472616e7366657220746f2073656c66000000000000000000600082015250565b600062000689601783620005ce565b9150620006968262000651565b602082019050919050565b60006020820190508181036000830152620006bc816200067a565b9050919050565b61372980620006d36000396000f3fe6080604052600436106101665760003560e01c80638cd42991116100d1578063b9a2de3a1161008a578063d8a4676f11610064578063d8a4676f14610539578063dae6128f14610577578063e8f396b7146105b4578063f2fde38b146105f157610166565b8063b9a2de3a146104a5578063bfb231d2146104ce578063d56d229d1461050e57610166565b80638cd42991146103805780638da5cb5b146103bd5780638ea98117146103e85780639eccacf614610411578063a168fa891461043c578063b0fb162f1461047a57610166565b8063454a2ab311610123578063454a2ab31461028b578063571a26a0146102a757806361728f39146102e857806379ba5097146103135780637ccfd7fc1461032a5780638ac000211461035557610166565b8063065de74c1461016b578063150b7a02146101945780631fe543e3146101d157806324f74697146101fa5780632e1a7d4d146102255780633d19714d14610262575b600080fd5b34801561017757600080fd5b50610192600480360381019061018d91906121be565b61061a565b005b3480156101a057600080fd5b506101bb60048036038101906101b691906122ae565b6106bb565b6040516101c89190612371565b60405180910390f35b3480156101dd57600080fd5b506101f860048036038101906101f391906123e2565b6106d0565b005b34801561020657600080fd5b5061020f610796565b60405161021c9190612461565b60405180910390f35b34801561023157600080fd5b5061024c600480360381019061024791906121be565b6107ac565b6040516102599190612497565b60405180910390f35b34801561026e57600080fd5b50610289600480360381019061028491906125f3565b61091f565b005b6102a560048036038101906102a091906121be565b610ab2565b005b3480156102b357600080fd5b506102ce60048036038101906102c991906121be565b610d41565b6040516102df959493929190612689565b60405180910390f35b3480156102f457600080fd5b506102fd610da4565b60405161030a91906126f5565b60405180910390f35b34801561031f57600080fd5b50610328610daa565b005b34801561033657600080fd5b5061033f610f3f565b60405161034c9190612461565b60405180910390f35b34801561036157600080fd5b5061036a610f55565b6040516103779190612710565b60405180910390f35b34801561038c57600080fd5b506103a760048036038101906103a291906121be565b610f5b565b6040516103b49190612710565b60405180910390f35b3480156103c957600080fd5b506103d2611083565b6040516103df919061272b565b60405180910390f35b3480156103f457600080fd5b5061040f600480360381019061040a9190612746565b6110ac565b005b34801561041d57600080fd5b5061042661128d565b60405161043391906127d2565b60405180910390f35b34801561044857600080fd5b50610463600480360381019061045e91906121be565b6112b3565b6040516104719291906127ed565b60405180910390f35b34801561048657600080fd5b5061048f6112f1565b60405161049c9190612833565b60405180910390f35b3480156104b157600080fd5b506104cc60048036038101906104c791906121be565b611305565b005b3480156104da57600080fd5b506104f560048036038101906104f091906121be565b6116dd565b60405161050594939291906128cd565b60405180910390f35b34801561051a57600080fd5b5061052361183a565b6040516105309190612941565b60405180910390f35b34801561054557600080fd5b50610560600480360381019061055b91906121be565b611860565b60405161056e929190612a1a565b60405180910390f35b34801561058357600080fd5b5061059e600480360381019061059991906121be565b611928565b6040516105ab919061272b565b60405180910390f35b3480156105c057600080fd5b506105db60048036038101906105d691906121be565b61195b565b6040516105e89190612710565b60405180910390f35b3480156105fd57600080fd5b5061061860048036038101906106139190612746565b611973565b005b610622611987565b6005818154811061063657610635612a4a565b5b906000526020600020906004020160030160009054906101000a900460ff16610694576040517f08c379a000000000000000000000000000000000000000000000000000000000815260040161068b90612ac5565b60405180910390fd5b4360066000838152602001908152602001600020600001819055506106b881611a17565b50565b600063150b7a0260e01b905095945050505050565b600260009054906101000a900473ffffffffffffffffffffffffffffffffffffffff1673ffffffffffffffffffffffffffffffffffffffff163373ffffffffffffffffffffffffffffffffffffffff16146107865733600260009054906101000a900473ffffffffffffffffffffffffffffffffffffffff166040517f1cf993f400000000000000000000000000000000000000000000000000000000815260040161077d929190612ae5565b60405180910390fd5b610791838383611c8a565b505050565b600c60009054906101000a900463ffffffff1681565b60006107b6611ea9565b60006006600084815260200190815260200160002060040160003373ffffffffffffffffffffffffffffffffffffffff1673ffffffffffffffffffffffffffffffffffffffff168152602001908152602001600020549050600081111561090c5760006006600085815260200190815260200160002060040160003373ffffffffffffffffffffffffffffffffffffffff1673ffffffffffffffffffffffffffffffffffffffff168152602001908152602001600020819055503373ffffffffffffffffffffffffffffffffffffffff166108fc829081150290604051600060405180830381858888f1935050505061090b57806006600085815260200190815260200160002060040160003373ffffffffffffffffffffffffffffffffffffffff1673ffffffffffffffffffffffffffffffffffffffff168152602001908152602001600020819055506000915050610912565b5b60019150505b61091a611eef565b919050565b610927611987565b6000600460009054906101000a900473ffffffffffffffffffffffffffffffffffffffff1673ffffffffffffffffffffffffffffffffffffffff1663a561403330846040518363ffffffff1660e01b8152600401610986929190612b0e565b6020604051808303816000875af11580156109a5573d6000803e3d6000fd5b505050506040513d601f19601f820116820180604052508101906109c99190612b53565b905060056040518060800160405280838152602001858152602001848152602001600115158152509080600181540180825580915050600190039060005260206000209060040201600090919091909150600082015181600001556020820151816001019081610a399190612d82565b506040820151816002019081610a4f9190612d82565b5060608201518160030160006101000a81548160ff02191690831515021790555050507f17c9241037cd7e3073fcec5d60b85d9c193ef49a65b1a49b6c806c5c3c6b4fd8818484604051610aa593929190612e54565b60405180910390a1505050565b8060066000828152602001908152602001600020600101544310610b0b576040517f08c379a0000000000000000000000000000000000000000000000000000000008152600401610b0290612ee5565b60405180910390fd5b610b13611ea9565b60066000838152602001908152602001600020600301543411610b6b576040517f08c379a0000000000000000000000000000000000000000000000000000000008152600401610b6290612f51565b60405180910390fd5b600073ffffffffffffffffffffffffffffffffffffffff166006600084815260200190815260200160002060020160019054906101000a900473ffffffffffffffffffffffffffffffffffffffff1673ffffffffffffffffffffffffffffffffffffffff1614610c8c5760066000838152602001908152602001600020600301546006600084815260200190815260200160002060040160006006600086815260200190815260200160002060020160019054906101000a900473ffffffffffffffffffffffffffffffffffffffff1673ffffffffffffffffffffffffffffffffffffffff1673ffffffffffffffffffffffffffffffffffffffff1681526020019081526020016000206000828254610c849190612fa0565b925050819055505b336006600084815260200190815260200160002060020160016101000a81548173ffffffffffffffffffffffffffffffffffffffff021916908373ffffffffffffffffffffffffffffffffffffffff1602179055503460066000848152602001908152602001600020600301819055507ff4757a49b326036464bec6fe419a4ae38c8a02ce3e68bf0809674f6aab8ad3003334604051610d2d929190612fd4565b60405180910390a1610d3d611eef565b5050565b60066020528060005260406000206000915090508060000154908060010154908060020160009054906101000a900460ff16908060020160019054906101000a900473ffffffffffffffffffffffffffffffffffffffff16908060030154905085565b600b5481565b600160009054906101000a900473ffffffffffffffffffffffffffffffffffffffff1673ffffffffffffffffffffffffffffffffffffffff163373ffffffffffffffffffffffffffffffffffffffff1614610e3a576040517f08c379a0000000000000000000000000000000000000000000000000000000008152600401610e3190613049565b60405180910390fd5b60008060009054906101000a900473ffffffffffffffffffffffffffffffffffffffff169050336000806101000a81548173ffffffffffffffffffffffffffffffffffffffff021916908373ffffffffffffffffffffffffffffffffffffffff1602179055506000600160006101000a81548173ffffffffffffffffffffffffffffffffffffffff021916908373ffffffffffffffffffffffffffffffffffffffff1602179055503373ffffffffffffffffffffffffffffffffffffffff168173ffffffffffffffffffffffffffffffffffffffff167f8be0079c531659141344cd1fd0a4f28419497f9722a3daafe3b4186f6b6457e060405160405180910390a350565b600c60069054906101000a900463ffffffff1681565b600a5481565b600060058281548110610f7157610f70612a4a565b5b906000526020600020906004020160030160009054906101000a900460ff16610fcf576040517f08c379a0000000000000000000000000000000000000000000000000000000008152600401610fc690612ac5565b60405180910390fd5b6006600083815260200190815260200160002060020160009054906101000a900460ff1615611033576040517f08c379a000000000000000000000000000000000000000000000000000000000815260040161102a90612ee5565b60405180910390fd5b60066000838152602001908152602001600020600101544310611059576000905061107e565b43600660008481526020019081526020016000206001015461107b9190613069565b90505b919050565b60008060009054906101000a900473ffffffffffffffffffffffffffffffffffffffff16905090565b6110b4611083565b73ffffffffffffffffffffffffffffffffffffffff163373ffffffffffffffffffffffffffffffffffffffff161415801561113d5750600260009054906101000a900473ffffffffffffffffffffffffffffffffffffffff1673ffffffffffffffffffffffffffffffffffffffff163373ffffffffffffffffffffffffffffffffffffffff1614155b156111ac573361114b611083565b600260009054906101000a900473ffffffffffffffffffffffffffffffffffffffff166040517f061db9c10000000000000000000000000000000000000000000000000000000081526004016111a39392919061309d565b60405180910390fd5b600073ffffffffffffffffffffffffffffffffffffffff168173ffffffffffffffffffffffffffffffffffffffff1603611212576040517fd92e233d00000000000000000000000000000000000000000000000000000000815260040160405180910390fd5b80600260006101000a81548173ffffffffffffffffffffffffffffffffffffffff021916908373ffffffffffffffffffffffffffffffffffffffff1602179055507fd1a6a14209a385a964d036e404cb5cfb71f4000cdb03c9366292430787261be681604051611282919061272b565b60405180910390a150565b600260009054906101000a900473ffffffffffffffffffffffffffffffffffffffff1681565b60096020528060005260406000206000915090508060000160009054906101000a900460ff16908060000160019054906101000a900460ff16905082565b600c60049054906101000a900461ffff1681565b61130d611987565b806006600082815260200190815260200160002060010154431015611367576040517f08c379a000000000000000000000000000000000000000000000000000000000815260040161135e90613120565b60405180910390fd5b61136f611ea9565b6006600083815260200190815260200160002060020160009054906101000a900460ff16156113d3576040517f08c379a00000000000000000000000000000000000000000000000000000000081526004016113ca906131b2565b60405180910390fd5b60016006600084815260200190815260200160002060020160006101000a81548160ff0219169083151502179055506006600083815260200190815260200160002060020160019054906101000a900473ffffffffffffffffffffffffffffffffffffffff16600760006005858154811061145157611450612a4a565b5b906000526020600020906004020160000154815260200190815260200160002060006101000a81548173ffffffffffffffffffffffffffffffffffffffff021916908373ffffffffffffffffffffffffffffffffffffffff1602179055507f534280d94ac3a03462fc087f31d64053279f624042a9ebb9178655ebb544e8e76006600084815260200190815260200160002060020160019054906101000a900473ffffffffffffffffffffffffffffffffffffffff1660066000858152602001908152602001600020600301546005858154811061153257611531612a4a565b5b9060005260206000209060040201600001546005868154811061155857611557612a4a565b5b90600052602060002090600402016001016040516115799493929190613256565b60405180910390a1600460009054906101000a900473ffffffffffffffffffffffffffffffffffffffff1673ffffffffffffffffffffffffffffffffffffffff166342842e0e306006600086815260200190815260200160002060020160019054906101000a900473ffffffffffffffffffffffffffffffffffffffff166005868154811061160b5761160a612a4a565b5b9060005260206000209060040201600001546040518463ffffffff1660e01b815260040161163b939291906132a2565b600060405180830381600087803b15801561165557600080fd5b505af1158015611669573d6000803e3d6000fd5b50505050611675611083565b73ffffffffffffffffffffffffffffffffffffffff166108fc60066000858152602001908152602001600020600301549081150290604051600060405180830381858888f193505050501580156116d0573d6000803e3d6000fd5b506116d9611eef565b5050565b600581815481106116ed57600080fd5b906000526020600020906004020160009150905080600001549080600101805461171690612baf565b80601f016020809104026020016040519081016040528092919081815260200182805461174290612baf565b801561178f5780601f106117645761010080835404028352916020019161178f565b820191906000526020600020905b81548152906001019060200180831161177257829003601f168201915b5050505050908060020180546117a490612baf565b80601f01602080910402602001604051908101604052809291908181526020018280546117d090612baf565b801561181d5780601f106117f25761010080835404028352916020019161181d565b820191906000526020600020905b81548152906001019060200180831161180057829003601f168201915b5050505050908060030160009054906101000a900460ff16905084565b600460009054906101000a900473ffffffffffffffffffffffffffffffffffffffff1681565b600060606000600960008581526020019081526020016000206040518060600160405290816000820160009054906101000a900460ff161515151581526020016000820160019054906101000a900460ff161515151581526020016001820180548060200260200160405190810160405280929190818152602001828054801561190957602002820191906000526020600020905b8154815260200190600101908083116118f5575b5050505050815250509050806000015181604001519250925050915091565b60076020528060005260406000206000915054906101000a900473ffffffffffffffffffffffffffffffffffffffff1681565b60086020528060005260406000206000915090505481565b61197b611987565b61198481611ef9565b50565b60008054906101000a900473ffffffffffffffffffffffffffffffffffffffff1673ffffffffffffffffffffffffffffffffffffffff163373ffffffffffffffffffffffffffffffffffffffff1614611a15576040517f08c379a0000000000000000000000000000000000000000000000000000000008152600401611a0c90613325565b60405180910390fd5b565b6000600260009054906101000a900473ffffffffffffffffffffffffffffffffffffffff1673ffffffffffffffffffffffffffffffffffffffff16639b1c385e6040518060c00160405280600b548152602001600a548152602001600c60049054906101000a900461ffff1661ffff168152602001600c60009054906101000a900463ffffffff1663ffffffff168152602001600c60069054906101000a900463ffffffff1663ffffffff168152602001611ae2604051806020016040528060001515815250612025565b8152506040518263ffffffff1660e01b8152600401611b019190613450565b6020604051808303816000875af1158015611b20573d6000803e3d6000fd5b505050506040513d601f19601f82011682018060405250810190611b449190612b53565b90506040518060600160405280600015158152602001600115158152602001600067ffffffffffffffff811115611b7e57611b7d6124c8565b5b604051908082528060200260200182016040528015611bac5781602001602082028036833780820191505090505b508152506009600083815260200190815260200160002060008201518160000160006101000a81548160ff02191690831515021790555060208201518160000160016101000a81548160ff0219169083151502179055506040820151816001019080519060200190611c1f9291906120bd565b509050508160086000838152602001908152602001600020819055507fcc58b13ad3eab50626c6a6300b1d139cd6ebb1688a7cced9461c2f7e762665ee81600c60069054906101000a900463ffffffff16604051611c7e929190613472565b60405180910390a15050565b6009600084815260200190815260200160002060000160019054906101000a900460ff16611ced576040517f08c379a0000000000000000000000000000000000000000000000000000000008152600401611ce4906134e7565b60405180910390fd5b60016009600085815260200190815260200160002060000160006101000a81548160ff0219169083151502179055508181600960008681526020019081526020016000206001019190611d4192919061210a565b507ffe2e2d779dba245964d4e3ef9b994be63856fd568bf7d3ca9e224755cb1bd54d838383604051611d7593929190613571565b60405180910390a16000600860008581526020019081526020016000205490506000600b84846000818110611dad57611dac612a4a565b5b90506020020135611dbe91906135d2565b6014611dca9190612fa0565b9050806006600084815260200190815260200160002060000154611dee9190612fa0565b60066000848152602001908152602001600020600101819055507f6629ad87443640d3f7c53724eff1bf0dd5350f7a733e58cfded9519910cf2db5600660008481526020019081526020016000206001015460058481548110611e5457611e53612a4a565b5b90600052602060002090600402016000015460058581548110611e7a57611e79612a4a565b5b9060005260206000209060040201600101604051611e9a93929190613603565b60405180910390a15050505050565b600260035403611ee5576040517f3ee5aeb500000000000000000000000000000000000000000000000000000000815260040160405180910390fd5b6002600381905550565b6001600381905550565b3373ffffffffffffffffffffffffffffffffffffffff168173ffffffffffffffffffffffffffffffffffffffff1603611f67576040517f08c379a0000000000000000000000000000000000000000000000000000000008152600401611f5e9061368d565b60405180910390fd5b80600160006101000a81548173ffffffffffffffffffffffffffffffffffffffff021916908373ffffffffffffffffffffffffffffffffffffffff1602179055508073ffffffffffffffffffffffffffffffffffffffff1660008054906101000a900473ffffffffffffffffffffffffffffffffffffffff1673ffffffffffffffffffffffffffffffffffffffff167fed8889f560326eb138920d842192f0eb3dd22b4f139c87a2c57538e05bae127860405160405180910390a350565b60607f92fd13387c7fe7befbc38d303d6468778fb9731bc4583f17d92989c6fcfdeaaa8260405160240161205991906136d8565b604051602081830303815290604052907bffffffffffffffffffffffffffffffffffffffffffffffffffffffff19166020820180517bffffffffffffffffffffffffffffffffffffffffffffffffffffffff83818316178352505050509050919050565b8280548282559060005260206000209081019282156120f9579160200282015b828111156120f85782518255916020019190600101906120dd565b5b5090506121069190612157565b5090565b828054828255906000526020600020908101928215612146579160200282015b8281111561214557823582559160200191906001019061212a565b5b5090506121539190612157565b5090565b5b80821115612170576000816000905550600101612158565b5090565b6000604051905090565b600080fd5b600080fd5b6000819050919050565b61219b81612188565b81146121a657600080fd5b50565b6000813590506121b881612192565b92915050565b6000602082840312156121d4576121d361217e565b5b60006121e2848285016121a9565b91505092915050565b600073ffffffffffffffffffffffffffffffffffffffff82169050919050565b6000612216826121eb565b9050919050565b6122268161220b565b811461223157600080fd5b50565b6000813590506122438161221d565b92915050565b600080fd5b600080fd5b600080fd5b60008083601f84011261226e5761226d612249565b5b8235905067ffffffffffffffff81111561228b5761228a61224e565b5b6020830191508360018202830111156122a7576122a6612253565b5b9250929050565b6000806000806000608086880312156122ca576122c961217e565b5b60006122d888828901612234565b95505060206122e988828901612234565b94505060406122fa888289016121a9565b935050606086013567ffffffffffffffff81111561231b5761231a612183565b5b61232788828901612258565b92509250509295509295909350565b60007fffffffff0000000000000000000000000000000000000000000000000000000082169050919050565b61236b81612336565b82525050565b60006020820190506123866000830184612362565b92915050565b60008083601f8401126123a2576123a1612249565b5b8235905067ffffffffffffffff8111156123bf576123be61224e565b5b6020830191508360208202830111156123db576123da612253565b5b9250929050565b6000806000604084860312156123fb576123fa61217e565b5b6000612409868287016121a9565b935050602084013567ffffffffffffffff81111561242a57612429612183565b5b6124368682870161238c565b92509250509250925092565b600063ffffffff82169050919050565b61245b81612442565b82525050565b60006020820190506124766000830184612452565b92915050565b60008115159050919050565b6124918161247c565b82525050565b60006020820190506124ac6000830184612488565b92915050565b600080fd5b6000601f19601f8301169050919050565b7f4e487b7100000000000000000000000000000000000000000000000000000000600052604160045260246000fd5b612500826124b7565b810181811067ffffffffffffffff8211171561251f5761251e6124c8565b5b80604052505050565b6000612532612174565b905061253e82826124f7565b919050565b600067ffffffffffffffff82111561255e5761255d6124c8565b5b612567826124b7565b9050602081019050919050565b82818337600083830152505050565b600061259661259184612543565b612528565b9050828152602081018484840111156125b2576125b16124b2565b5b6125bd848285612574565b509392505050565b600082601f8301126125da576125d9612249565b5b81356125ea848260208601612583565b91505092915050565b6000806040838503121561260a5761260961217e565b5b600083013567ffffffffffffffff81111561262857612627612183565b5b612634858286016125c5565b925050602083013567ffffffffffffffff81111561265557612654612183565b5b612661858286016125c5565b9150509250929050565b61267481612188565b82525050565b6126838161220b565b82525050565b600060a08201905061269e600083018861266b565b6126ab602083018761266b565b6126b86040830186612488565b6126c5606083018561267a565b6126d2608083018461266b565b9695505050505050565b6000819050919050565b6126ef816126dc565b82525050565b600060208201905061270a60008301846126e6565b92915050565b6000602082019050612725600083018461266b565b92915050565b6000602082019050612740600083018461267a565b92915050565b60006020828403121561275c5761275b61217e565b5b600061276a84828501612234565b91505092915050565b6000819050919050565b600061279861279361278e846121eb565b612773565b6121eb565b9050919050565b60006127aa8261277d565b9050919050565b60006127bc8261279f565b9050919050565b6127cc816127b1565b82525050565b60006020820190506127e760008301846127c3565b92915050565b60006040820190506128026000830185612488565b61280f6020830184612488565b9392505050565b600061ffff82169050919050565b61282d81612816565b82525050565b60006020820190506128486000830184612824565b92915050565b600081519050919050565b600082825260208201905092915050565b60005b8381101561288857808201518184015260208101905061286d565b60008484015250505050565b600061289f8261284e565b6128a98185612859565b93506128b981856020860161286a565b6128c2816124b7565b840191505092915050565b60006080820190506128e2600083018761266b565b81810360208301526128f48186612894565b905081810360408301526129088185612894565b90506129176060830184612488565b95945050505050565b600061292b8261279f565b9050919050565b61293b81612920565b82525050565b60006020820190506129566000830184612932565b92915050565b600081519050919050565b600082825260208201905092915050565b6000819050602082019050919050565b61299181612188565b82525050565b60006129a38383612988565b60208301905092915050565b6000602082019050919050565b60006129c78261295c565b6129d18185612967565b93506129dc83612978565b8060005b83811015612a0d5781516129f48882612997565b97506129ff836129af565b9250506001810190506129e0565b5085935050505092915050565b6000604082019050612a2f6000830185612488565b8181036020830152612a4181846129bc565b90509392505050565b7f4e487b7100000000000000000000000000000000000000000000000000000000600052603260045260246000fd5b7f4974656d206e6f74206c69737465640000000000000000000000000000000000600082015250565b6000612aaf600f83612859565b9150612aba82612a79565b602082019050919050565b60006020820190508181036000830152612ade81612aa2565b9050919050565b6000604082019050612afa600083018561267a565b612b07602083018461267a565b9392505050565b6000604082019050612b23600083018561267a565b8181036020830152612b358184612894565b90509392505050565b600081519050612b4d81612192565b92915050565b600060208284031215612b6957612b6861217e565b5b6000612b7784828501612b3e565b91505092915050565b7f4e487b7100000000000000000000000000000000000000000000000000000000600052602260045260246000fd5b60006002820490506001821680612bc757607f821691505b602082108103612bda57612bd9612b80565b5b50919050565b60008190508160005260206000209050919050565b60006020601f8301049050919050565b600082821b905092915050565b600060088302612c427fffffffffffffffffffffffffffffffffffffffffffffffffffffffffffffffff82612c05565b612c4c8683612c05565b95508019841693508086168417925050509392505050565b6000612c7f612c7a612c7584612188565b612773565b612188565b9050919050565b6000819050919050565b612c9983612c64565b612cad612ca582612c86565b848454612c12565b825550505050565b600090565b612cc2612cb5565b612ccd818484612c90565b505050565b5b81811015612cf157612ce6600082612cba565b600181019050612cd3565b5050565b601f821115612d3657612d0781612be0565b612d1084612bf5565b81016020851015612d1f578190505b612d33612d2b85612bf5565b830182612cd2565b50505b505050565b600082821c905092915050565b6000612d5960001984600802612d3b565b1980831691505092915050565b6000612d728383612d48565b9150826002028217905092915050565b612d8b8261284e565b67ffffffffffffffff811115612da457612da36124c8565b5b612dae8254612baf565b612db9828285612cf5565b600060209050601f831160018114612dec5760008415612dda578287015190505b612de48582612d66565b865550612e4c565b601f198416612dfa86612be0565b60005b82811015612e2257848901518255600182019150602085019450602081019050612dfd565b86831015612e3f5784890151612e3b601f891682612d48565b8355505b6001600288020188555050505b505050505050565b6000606082019050612e69600083018661266b565b8181036020830152612e7b8185612894565b90508181036040830152612e8f8184612894565b9050949350505050565b7f41756374696f6e20616c726561647920656e6465640000000000000000000000600082015250565b6000612ecf601583612859565b9150612eda82612e99565b602082019050919050565b60006020820190508181036000830152612efe81612ec2565b9050919050565b7f546865726520616c726561647920697320612068696768657220626964000000600082015250565b6000612f3b601d83612859565b9150612f4682612f05565b602082019050919050565b60006020820190508181036000830152612f6a81612f2e565b9050919050565b7f4e487b7100000000000000000000000000000000000000000000000000000000600052601160045260246000fd5b6000612fab82612188565b9150612fb683612188565b9250828201905080821115612fce57612fcd612f71565b5b92915050565b6000604082019050612fe9600083018561267a565b612ff6602083018461266b565b9392505050565b7f4d7573742062652070726f706f736564206f776e657200000000000000000000600082015250565b6000613033601683612859565b915061303e82612ffd565b602082019050919050565b6000602082019050818103600083015261306281613026565b9050919050565b600061307482612188565b915061307f83612188565b925082820390508181111561309757613096612f71565b5b92915050565b60006060820190506130b2600083018661267a565b6130bf602083018561267a565b6130cc604083018461267a565b949350505050565b7f41756374696f6e206e6f742079657420656e6465640000000000000000000000600082015250565b600061310a601583612859565b9150613115826130d4565b602082019050919050565b60006020820190508181036000830152613139816130fd565b9050919050565b7f41756374696f6e20656e642068617320616c7265616479206265656e2063616c60008201527f6c656420666f722074686973206974656d000000000000000000000000000000602082015250565b600061319c603183612859565b91506131a782613140565b604082019050919050565b600060208201905081810360008301526131cb8161318f565b9050919050565b600081546131df81612baf565b6131e98186612859565b94506001821660008114613204576001811461321a5761324d565b60ff19831686528115156020028601935061324d565b61322385612be0565b60005b8381101561324557815481890152600182019150602081019050613226565b808801955050505b50505092915050565b600060808201905061326b600083018761267a565b613278602083018661266b565b613285604083018561266b565b818103606083015261329781846131d2565b905095945050505050565b60006060820190506132b7600083018661267a565b6132c4602083018561267a565b6132d1604083018461266b565b949350505050565b7f4f6e6c792063616c6c61626c65206279206f776e657200000000000000000000600082015250565b600061330f601683612859565b915061331a826132d9565b602082019050919050565b6000602082019050818103600083015261333e81613302565b9050919050565b61334e816126dc565b82525050565b61335d81612816565b82525050565b61336c81612442565b82525050565b600081519050919050565b600082825260208201905092915050565b600061339982613372565b6133a3818561337d565b93506133b381856020860161286a565b6133bc816124b7565b840191505092915050565b600060c0830160008301516133df6000860182613345565b5060208301516133f26020860182612988565b5060408301516134056040860182613354565b5060608301516134186060860182613363565b50608083015161342b6080860182613363565b5060a083015184820360a0860152613443828261338e565b9150508091505092915050565b6000602082019050818103600083015261346a81846133c7565b905092915050565b6000604082019050613487600083018561266b565b6134946020830184612452565b9392505050565b7f52657175657374206e6f7420666f756e64000000000000000000000000000000600082015250565b60006134d1601183612859565b91506134dc8261349b565b602082019050919050565b60006020820190508181036000830152613500816134c4565b9050919050565b600080fd5b82818337505050565b60006135218385612967565b93507f07ffffffffffffffffffffffffffffffffffffffffffffffffffffffffffffff83111561355457613553613507565b5b60208302925061356583858461350c565b82840190509392505050565b6000604082019050613586600083018661266b565b8181036020830152613599818486613515565b9050949350505050565b7f4e487b7100000000000000000000000000000000000000000000000000000000600052601260045260246000fd5b60006135dd82612188565b91506135e883612188565b9250826135f8576135f76135a3565b5b828206905092915050565b6000606082019050613618600083018661266b565b613625602083018561266b565b818103604083015261363781846131d2565b9050949350505050565b7f43616e6e6f74207472616e7366657220746f2073656c66000000000000000000600082015250565b6000613677601783612859565b915061368282613641565b602082019050919050565b600060208201905081810360008301526136a68161366a565b9050919050565b6136b68161247c565b82525050565b6020820160008201516136d260008501826136ad565b50505050565b60006020820190506136ed60008301846136bc565b9291505056fea2646970667358221220f10f73396a39a28c9057a45322a9e3482e03e08ea2b170a624d8d5a31ce0313664736f6c63430008140033",
  "linkReferences": {},
  "deployedLinkReferences": {}
}