{
  "_format": "hh-sol-artifact-1",
  "contractName": "CandleAuction",
  "sourceName": "contracts/deepstack.sol",
  "abi": [
    {
      "inputs": [
        {
          "internalType": "address",
          "name": "_vrfCoordinator",
          "type": "address"
        },
        {
          "internalType": "bytes32",
          "name": "_keyHash",
          "type": "bytes32"
        },
        {
          "internalType": "uint256",
          "name": "_subscriptionId",
          "type": "uint256"
        },
        {
          "internalType": "uint32",
          "name": "_callbackGasLimit",
          "type": "uint32"
        },
        {
          "internalType": "uint16",
          "name": "_requestConfirmations",
          "type": "uint16"
        },
        {
          "internalType": "address",
          "name": "_nftContract",
          "type": "address"
        }
      ],
      "stateMutability": "nonpayable",
      "type": "constructor"
    },
    {
      "inputs": [
        {
          "internalType": "address",
          "name": "have",
          "type": "address"
        },
        {
          "internalType": "address",
          "name": "want",
          "type": "address"
        }
      ],
      "name": "OnlyCoordinatorCanFulfill",
      "type": "error"
    },
    {
      "inputs": [
        {
          "internalType": "address",
          "name": "have",
          "type": "address"
        },
        {
          "internalType": "address",
          "name": "owner",
          "type": "address"
        },
        {
          "internalType": "address",
          "name": "coordinator",
          "type": "address"
        }
      ],
      "name": "OnlyOwnerOrCoordinator",
      "type": "error"
    },
    {
      "inputs": [],
      "name": "ReentrancyGuardReentrantCall",
      "type": "error"
    },
    {
      "inputs": [],
      "name": "ZeroAddress",
      "type": "error"
    },
    {
      "anonymous": false,
      "inputs": [
        {
          "indexed": false,
          "internalType": "address",
          "name": "winner",
          "type": "address"
        },
        {
          "indexed": false,
          "internalType": "uint256",
          "name": "amount",
          "type": "uint256"
        },
        {
          "indexed": false,
          "internalType": "uint256",
          "name": "itemId",
          "type": "uint256"
        },
        {
          "indexed": false,
          "internalType": "string",
          "name": "itemName",
          "type": "string"
        }
      ],
      "name": "AuctionEnded",
      "type": "event"
    },
    {
      "anonymous": false,
      "inputs": [
        {
          "indexed": false,
          "internalType": "uint256",
          "name": "endTime",
          "type": "uint256"
        },
        {
          "indexed": false,
          "internalType": "uint256",
          "name": "itemId",
          "type": "uint256"
        },
        {
          "indexed": false,
          "internalType": "string",
          "name": "itemName",
          "type": "string"
        }
      ],
      "name": "AuctionStarted",
      "type": "event"
    },
    {
      "anonymous": false,
      "inputs": [
        {
          "indexed": false,
          "internalType": "address",
          "name": "vrfCoordinator",
          "type": "address"
        }
      ],
      "name": "CoordinatorSet",
      "type": "event"
    },
    {
      "anonymous": false,
      "inputs": [
        {
          "indexed": false,
          "internalType": "address",
          "name": "bidder",
          "type": "address"
        },
        {
          "indexed": false,
          "internalType": "uint256",
          "name": "amount",
          "type": "uint256"
        }
      ],
      "name": "HighestBidIncreased",
      "type": "event"
    },
    {
      "anonymous": false,
      "inputs": [
        {
          "indexed": false,
          "internalType": "uint256",
          "name": "itemId",
          "type": "uint256"
        },
        {
          "indexed": false,
          "internalType": "string",
          "name": "itemName",
          "type": "string"
        },
        {
          "indexed": false,
          "internalType": "string",
          "name": "itemURI",
          "type": "string"
        }
      ],
      "name": "ItemListed",
      "type": "event"
    },
    {
      "anonymous": false,
      "inputs": [
        {
          "indexed": true,
          "internalType": "address",
          "name": "from",
          "type": "address"
        },
        {
          "indexed": true,
          "internalType": "address",
          "name": "to",
          "type": "address"
        }
      ],
      "name": "OwnershipTransferRequested",
      "type": "event"
    },
    {
      "anonymous": false,
      "inputs": [
        {
          "indexed": true,
          "internalType": "address",
          "name": "from",
          "type": "address"
        },
        {
          "indexed": true,
          "internalType": "address",
          "name": "to",
          "type": "address"
        }
      ],
      "name": "OwnershipTransferred",
      "type": "event"
    },
    {
      "anonymous": false,
      "inputs": [
        {
          "indexed": false,
          "internalType": "uint256",
          "name": "requestId",
          "type": "uint256"
        },
        {
          "indexed": false,
          "internalType": "uint256[]",
          "name": "randomWords",
          "type": "uint256[]"
        }
      ],
      "name": "RequestFulfilled",
      "type": "event"
    },
    {
      "anonymous": false,
      "inputs": [
        {
          "indexed": false,
          "internalType": "uint256",
          "name": "requestId",
          "type": "uint256"
        },
        {
          "indexed": false,
          "internalType": "uint32",
          "name": "numWords",
          "type": "uint32"
        }
      ],
      "name": "RequestSent",
      "type": "event"
    },
    {
      "inputs": [],
      "name": "acceptOwnership",
      "outputs": [],
      "stateMutability": "nonpayable",
      "type": "function"
    },
    {
      "inputs": [
        {
          "internalType": "uint256",
          "name": "",
          "type": "uint256"
        }
      ],
      "name": "auctions",
      "outputs": [
        {
          "internalType": "uint256",
          "name": "startTime",
          "type": "uint256"
        },
        {
          "internalType": "uint256",
          "name": "endTime",
          "type": "uint256"
        },
        {
          "internalType": "bool",
          "name": "auctionEnded",
          "type": "bool"
        },
        {
          "internalType": "address",
          "name": "highestBidder",
          "type": "address"
        },
        {
          "internalType": "uint256",
          "name": "highestBid",
          "type": "uint256"
        }
      ],
      "stateMutability": "view",
      "type": "function"
    },
    {
      "inputs": [
        {
          "internalType": "uint256",
          "name": "_itemId",
          "type": "uint256"
        }
      ],
      "name": "bid",
      "outputs": [],
      "stateMutability": "payable",
      "type": "function"
    },
    {
      "inputs": [],
      "name": "callbackGasLimit",
      "outputs": [
        {
          "internalType": "uint32",
          "name": "",
          "type": "uint32"
        }
      ],
      "stateMutability": "view",
      "type": "function"
    },
    {
      "inputs": [
        {
          "internalType": "uint256",
          "name": "_itemId",
          "type": "uint256"
        }
      ],
      "name": "endAuction",
      "outputs": [],
      "stateMutability": "nonpayable",
      "type": "function"
    },
    {
      "inputs": [
        {
          "internalType": "uint256",
          "name": "_requestId",
          "type": "uint256"
        }
      ],
      "name": "getRequestStatus",
      "outputs": [
        {
          "internalType": "bool",
          "name": "fulfilled",
          "type": "bool"
        },
        {
          "internalType": "uint256[]",
          "name": "randomWords",
          "type": "uint256[]"
        }
      ],
      "stateMutability": "view",
      "type": "function"
    },
    {
      "inputs": [
        {
          "internalType": "uint256",
          "name": "_itemId",
          "type": "uint256"
        }
      ],
      "name": "getTimeRemaining",
      "outputs": [
        {
          "internalType": "uint256",
          "name": "timeRemaining",
          "type": "uint256"
        }
      ],
      "stateMutability": "view",
      "type": "function"
    },
    {
      "inputs": [
        {
          "internalType": "uint256",
          "name": "",
          "type": "uint256"
        }
      ],
      "name": "itemWinners",
      "outputs": [
        {
          "internalType": "address",
          "name": "",
          "type": "address"
        }
      ],
      "stateMutability": "view",
      "type": "function"
    },
    {
      "inputs": [
        {
          "internalType": "uint256",
          "name": "",
          "type": "uint256"
        }
      ],
      "name": "items",
      "outputs": [
        {
          "internalType": "uint256",
          "name": "itemId",
          "type": "uint256"
        },
        {
          "internalType": "string",
          "name": "itemName",
          "type": "string"
        },
        {
          "internalType": "string",
          "name": "itemURI",
          "type": "string"
        },
        {
          "internalType": "bool",
          "name": "isListed",
          "type": "bool"
        }
      ],
      "stateMutability": "view",
      "type": "function"
    },
    {
      "inputs": [],
      "name": "keyHash",
      "outputs": [
        {
          "internalType": "bytes32",
          "name": "",
          "type": "bytes32"
        }
      ],
      "stateMutability": "view",
      "type": "function"
    },
    {
      "inputs": [
        {
          "internalType": "string",
          "name": "_itemName",
          "type": "string"
        },
        {
          "internalType": "string",
          "name": "_itemURI",
          "type": "string"
        }
      ],
      "name": "listItem",
      "outputs": [],
      "stateMutability": "nonpayable",
      "type": "function"
    },
    {
      "inputs": [],
      "name": "nftContract",
      "outputs": [
        {
          "internalType": "contract NFT",
          "name": "",
          "type": "address"
        }
      ],
      "stateMutability": "view",
      "type": "function"
    },
    {
      "inputs": [],
      "name": "numWords",
      "outputs": [
        {
          "internalType": "uint32",
          "name": "",
          "type": "uint32"
        }
      ],
      "stateMutability": "view",
      "type": "function"
    },
    {
      "inputs": [
        {
          "internalType": "address",
          "name": "operator",
          "type": "address"
        },
        {
          "internalType": "address",
          "name": "from",
          "type": "address"
        },
        {
          "internalType": "uint256",
          "name": "tokenId",
          "type": "uint256"
        },
        {
          "internalType": "bytes",
          "name": "data",
          "type": "bytes"
        }
      ],
      "name": "onERC721Received",
      "outputs": [
        {
          "internalType": "bytes4",
          "name": "",
          "type": "bytes4"
        }
      ],
      "stateMutability": "nonpayable",
      "type": "function"
    },
    {
      "inputs": [],
      "name": "owner",
      "outputs": [
        {
          "internalType": "address",
          "name": "",
          "type": "address"
        }
      ],
      "stateMutability": "view",
      "type": "function"
    },
    {
      "inputs": [
        {
          "internalType": "uint256",
          "name": "requestId",
          "type": "uint256"
        },
        {
          "internalType": "uint256[]",
          "name": "randomWords",
          "type": "uint256[]"
        }
      ],
      "name": "rawFulfillRandomWords",
      "outputs": [],
      "stateMutability": "nonpayable",
      "type": "function"
    },
    {
      "inputs": [],
      "name": "requestConfirmations",
      "outputs": [
        {
          "internalType": "uint16",
          "name": "",
          "type": "uint16"
        }
      ],
      "stateMutability": "view",
      "type": "function"
    },
    {
      "inputs": [
        {
          "internalType": "uint256",
          "name": "",
          "type": "uint256"
        }
      ],
      "name": "requestIdToItemId",
      "outputs": [
        {
          "internalType": "uint256",
          "name": "",
          "type": "uint256"
        }
      ],
      "stateMutability": "view",
      "type": "function"
    },
    {
      "inputs": [
        {
          "internalType": "uint256",
          "name": "",
          "type": "uint256"
        }
      ],
      "name": "s_requests",
      "outputs": [
        {
          "internalType": "bool",
          "name": "fulfilled",
          "type": "bool"
        },
        {
          "internalType": "bool",
          "name": "exists",
          "type": "bool"
        }
      ],
      "stateMutability": "view",
      "type": "function"
    },
    {
      "inputs": [],
      "name": "s_subscriptionId",
      "outputs": [
        {
          "internalType": "uint256",
          "name": "",
          "type": "uint256"
        }
      ],
      "stateMutability": "view",
      "type": "function"
    },
    {
      "inputs": [],
      "name": "s_vrfCoordinator",
      "outputs": [
        {
          "internalType": "contract IVRFCoordinatorV2Plus",
          "name": "",
          "type": "address"
        }
      ],
      "stateMutability": "view",
      "type": "function"
    },
    {
      "inputs": [
        {
          "internalType": "address",
          "name": "_vrfCoordinator",
          "type": "address"
        }
      ],
      "name": "setCoordinator",
      "outputs": [],
      "stateMutability": "nonpayable",
      "type": "function"
    },
    {
      "inputs": [
        {
          "internalType": "uint256",
          "name": "_itemId",
          "type": "uint256"
        }
      ],
      "name": "startAuction",
      "outputs": [],
      "stateMutability": "nonpayable",
      "type": "function"
    },
    {
      "inputs": [
        {
          "internalType": "address",
          "name": "to",
          "type": "address"
        }
      ],
      "name": "transferOwnership",
      "outputs": [],
      "stateMutability": "nonpayable",
      "type": "function"
    },
    {
      "inputs": [
        {
          "internalType": "uint256",
          "name": "_itemId",
          "type": "uint256"
        }
      ],
      "name": "withdraw",
      "outputs": [
        {
          "internalType": "bool",
          "name": "",
          "type": "bool"
        }
      ],
      "stateMutability": "nonpayable",
      "type": "function"
    }
  ],
  "bytecode": "0x60806040523480156200001157600080fd5b5060405162003f2f38038062003f2f833981810160405281019062000037919062000532565b85338060008073ffffffffffffffffffffffffffffffffffffffff168273ffffffffffffffffffffffffffffffffffffffff1603620000ad576040517f08c379a0000000000000000000000000000000000000000000000000000000008152600401620000a4906200062f565b60405180910390fd5b816000806101000a81548173ffffffffffffffffffffffffffffffffffffffff021916908373ffffffffffffffffffffffffffffffffffffffff160217905550600073ffffffffffffffffffffffffffffffffffffffff168173ffffffffffffffffffffffffffffffffffffffff161462000134576200013381620002a360201b60201c565b5b505050600073ffffffffffffffffffffffffffffffffffffffff168173ffffffffffffffffffffffffffffffffffffffff16036200019e576040517fd92e233d00000000000000000000000000000000000000000000000000000000815260040160405180910390fd5b80600260006101000a81548173ffffffffffffffffffffffffffffffffffffffff021916908373ffffffffffffffffffffffffffffffffffffffff16021790555050600160038190555084600b8190555083600a8190555082600c60006101000a81548163ffffffff021916908363ffffffff16021790555081600c60046101000a81548161ffff021916908361ffff1602179055506001600c60066101000a81548163ffffffff021916908363ffffffff16021790555080600460006101000a81548173ffffffffffffffffffffffffffffffffffffffff021916908373ffffffffffffffffffffffffffffffffffffffff160217905550505050505050620006c3565b3373ffffffffffffffffffffffffffffffffffffffff168173ffffffffffffffffffffffffffffffffffffffff160362000314576040517f08c379a00000000000000000000000000000000000000000000000000000000081526004016200030b90620006a1565b60405180910390fd5b80600160006101000a81548173ffffffffffffffffffffffffffffffffffffffff021916908373ffffffffffffffffffffffffffffffffffffffff1602179055508073ffffffffffffffffffffffffffffffffffffffff1660008054906101000a900473ffffffffffffffffffffffffffffffffffffffff1673ffffffffffffffffffffffffffffffffffffffff167fed8889f560326eb138920d842192f0eb3dd22b4f139c87a2c57538e05bae127860405160405180910390a350565b600080fd5b600073ffffffffffffffffffffffffffffffffffffffff82169050919050565b60006200040482620003d7565b9050919050565b6200041681620003f7565b81146200042257600080fd5b50565b60008151905062000436816200040b565b92915050565b6000819050919050565b62000451816200043c565b81146200045d57600080fd5b50565b600081519050620004718162000446565b92915050565b6000819050919050565b6200048c8162000477565b81146200049857600080fd5b50565b600081519050620004ac8162000481565b92915050565b600063ffffffff82169050919050565b620004cd81620004b2565b8114620004d957600080fd5b50565b600081519050620004ed81620004c2565b92915050565b600061ffff82169050919050565b6200050c81620004f3565b81146200051857600080fd5b50565b6000815190506200052c8162000501565b92915050565b60008060008060008060c08789031215620005525762000551620003d2565b5b60006200056289828a0162000425565b96505060206200057589828a0162000460565b95505060406200058889828a016200049b565b94505060606200059b89828a01620004dc565b9350506080620005ae89828a016200051b565b92505060a0620005c189828a0162000425565b9150509295509295509295565b600082825260208201905092915050565b7f43616e6e6f7420736574206f776e657220746f207a65726f0000000000000000600082015250565b600062000617601883620005ce565b91506200062482620005df565b602082019050919050565b600060208201905081810360008301526200064a8162000608565b9050919050565b7f43616e6e6f74207472616e7366657220746f2073656c66000000000000000000600082015250565b600062000689601783620005ce565b9150620006968262000651565b602082019050919050565b60006020820190508181036000830152620006bc816200067a565b9050919050565b61385c80620006d36000396000f3fe6080604052600436106101665760003560e01c80638cd42991116100d1578063b9a2de3a1161008a578063d8a4676f11610064578063d8a4676f14610539578063dae6128f14610577578063e8f396b7146105b4578063f2fde38b146105f157610166565b8063b9a2de3a146104a5578063bfb231d2146104ce578063d56d229d1461050e57610166565b80638cd42991146103805780638da5cb5b146103bd5780638ea98117146103e85780639eccacf614610411578063a168fa891461043c578063b0fb162f1461047a57610166565b8063454a2ab311610123578063454a2ab31461028b578063571a26a0146102a757806361728f39146102e857806379ba5097146103135780637ccfd7fc1461032a5780638ac000211461035557610166565b8063065de74c1461016b578063150b7a02146101945780631fe543e3146101d157806324f74697146101fa5780632e1a7d4d146102255780633d19714d14610262575b600080fd5b34801561017757600080fd5b50610192600480360381019061018d919061225f565b61061a565b005b3480156101a057600080fd5b506101bb60048036038101906101b6919061234f565b6106bb565b6040516101c89190612412565b60405180910390f35b3480156101dd57600080fd5b506101f860048036038101906101f39190612483565b6106d0565b005b34801561020657600080fd5b5061020f610796565b60405161021c9190612502565b60405180910390f35b34801561023157600080fd5b5061024c6004803603810190610247919061225f565b6107ac565b6040516102599190612538565b60405180910390f35b34801561026e57600080fd5b5061028960048036038101906102849190612694565b6109c0565b005b6102a560048036038101906102a0919061225f565b610b53565b005b3480156102b357600080fd5b506102ce60048036038101906102c9919061225f565b610de2565b6040516102df95949392919061272a565b60405180910390f35b3480156102f457600080fd5b506102fd610e45565b60405161030a9190612796565b60405180910390f35b34801561031f57600080fd5b50610328610e4b565b005b34801561033657600080fd5b5061033f610fe0565b60405161034c9190612502565b60405180910390f35b34801561036157600080fd5b5061036a610ff6565b60405161037791906127b1565b60405180910390f35b34801561038c57600080fd5b506103a760048036038101906103a2919061225f565b610ffc565b6040516103b491906127b1565b60405180910390f35b3480156103c957600080fd5b506103d2611124565b6040516103df91906127cc565b60405180910390f35b3480156103f457600080fd5b5061040f600480360381019061040a91906127e7565b61114d565b005b34801561041d57600080fd5b5061042661132e565b6040516104339190612873565b60405180910390f35b34801561044857600080fd5b50610463600480360381019061045e919061225f565b611354565b60405161047192919061288e565b60405180910390f35b34801561048657600080fd5b5061048f611392565b60405161049c91906128d4565b60405180910390f35b3480156104b157600080fd5b506104cc60048036038101906104c7919061225f565b6113a6565b005b3480156104da57600080fd5b506104f560048036038101906104f0919061225f565b61177e565b604051610505949392919061296e565b60405180910390f35b34801561051a57600080fd5b506105236118db565b60405161053091906129e2565b60405180910390f35b34801561054557600080fd5b50610560600480360381019061055b919061225f565b611901565b60405161056e929190612abb565b60405180910390f35b34801561058357600080fd5b5061059e6004803603810190610599919061225f565b6119c9565b6040516105ab91906127cc565b60405180910390f35b3480156105c057600080fd5b506105db60048036038101906105d6919061225f565b6119fc565b6040516105e891906127b1565b60405180910390f35b3480156105fd57600080fd5b50610618600480360381019061061391906127e7565b611a14565b005b610622611a28565b6005818154811061063657610635612aeb565b5b906000526020600020906004020160030160009054906101000a900460ff16610694576040517f08c379a000000000000000000000000000000000000000000000000000000000815260040161068b90612b66565b60405180910390fd5b4360066000838152602001908152602001600020600001819055506106b881611ab8565b50565b600063150b7a0260e01b905095945050505050565b600260009054906101000a900473ffffffffffffffffffffffffffffffffffffffff1673ffffffffffffffffffffffffffffffffffffffff163373ffffffffffffffffffffffffffffffffffffffff16146107865733600260009054906101000a900473ffffffffffffffffffffffffffffffffffffffff166040517f1cf993f400000000000000000000000000000000000000000000000000000000815260040161077d929190612b86565b60405180910390fd5b610791838383611d2b565b505050565b600c60009054906101000a900463ffffffff1681565b60006107b6611f4a565b60006006600084815260200190815260200160002060040160003373ffffffffffffffffffffffffffffffffffffffff1673ffffffffffffffffffffffffffffffffffffffff1681526020019081526020016000205490506007600084815260200190815260200160002060009054906101000a900473ffffffffffffffffffffffffffffffffffffffff1673ffffffffffffffffffffffffffffffffffffffff163373ffffffffffffffffffffffffffffffffffffffff16036108af576040517f08c379a00000000000000000000000000000000000000000000000000000000081526004016108a690612c21565b60405180910390fd5b60008111156109ad5760006006600085815260200190815260200160002060040160003373ffffffffffffffffffffffffffffffffffffffff1673ffffffffffffffffffffffffffffffffffffffff168152602001908152602001600020819055503373ffffffffffffffffffffffffffffffffffffffff166108fc829081150290604051600060405180830381858888f193505050506109ac57806006600085815260200190815260200160002060040160003373ffffffffffffffffffffffffffffffffffffffff1673ffffffffffffffffffffffffffffffffffffffff1681526020019081526020016000208190555060009150506109b3565b5b60019150505b6109bb611f90565b919050565b6109c8611a28565b6000600460009054906101000a900473ffffffffffffffffffffffffffffffffffffffff1673ffffffffffffffffffffffffffffffffffffffff1663a561403330846040518363ffffffff1660e01b8152600401610a27929190612c41565b6020604051808303816000875af1158015610a46573d6000803e3d6000fd5b505050506040513d601f19601f82011682018060405250810190610a6a9190612c86565b905060056040518060800160405280838152602001858152602001848152602001600115158152509080600181540180825580915050600190039060005260206000209060040201600090919091909150600082015181600001556020820151816001019081610ada9190612eb5565b506040820151816002019081610af09190612eb5565b5060608201518160030160006101000a81548160ff02191690831515021790555050507f17c9241037cd7e3073fcec5d60b85d9c193ef49a65b1a49b6c806c5c3c6b4fd8818484604051610b4693929190612f87565b60405180910390a1505050565b8060066000828152602001908152602001600020600101544310610bac576040517f08c379a0000000000000000000000000000000000000000000000000000000008152600401610ba390613018565b60405180910390fd5b610bb4611f4a565b60066000838152602001908152602001600020600301543411610c0c576040517f08c379a0000000000000000000000000000000000000000000000000000000008152600401610c0390613084565b60405180910390fd5b600073ffffffffffffffffffffffffffffffffffffffff166006600084815260200190815260200160002060020160019054906101000a900473ffffffffffffffffffffffffffffffffffffffff1673ffffffffffffffffffffffffffffffffffffffff1614610d2d5760066000838152602001908152602001600020600301546006600084815260200190815260200160002060040160006006600086815260200190815260200160002060020160019054906101000a900473ffffffffffffffffffffffffffffffffffffffff1673ffffffffffffffffffffffffffffffffffffffff1673ffffffffffffffffffffffffffffffffffffffff1681526020019081526020016000206000828254610d2591906130d3565b925050819055505b336006600084815260200190815260200160002060020160016101000a81548173ffffffffffffffffffffffffffffffffffffffff021916908373ffffffffffffffffffffffffffffffffffffffff1602179055503460066000848152602001908152602001600020600301819055507ff4757a49b326036464bec6fe419a4ae38c8a02ce3e68bf0809674f6aab8ad3003334604051610dce929190613107565b60405180910390a1610dde611f90565b5050565b60066020528060005260406000206000915090508060000154908060010154908060020160009054906101000a900460ff16908060020160019054906101000a900473ffffffffffffffffffffffffffffffffffffffff16908060030154905085565b600b5481565b600160009054906101000a900473ffffffffffffffffffffffffffffffffffffffff1673ffffffffffffffffffffffffffffffffffffffff163373ffffffffffffffffffffffffffffffffffffffff1614610edb576040517f08c379a0000000000000000000000000000000000000000000000000000000008152600401610ed29061317c565b60405180910390fd5b60008060009054906101000a900473ffffffffffffffffffffffffffffffffffffffff169050336000806101000a81548173ffffffffffffffffffffffffffffffffffffffff021916908373ffffffffffffffffffffffffffffffffffffffff1602179055506000600160006101000a81548173ffffffffffffffffffffffffffffffffffffffff021916908373ffffffffffffffffffffffffffffffffffffffff1602179055503373ffffffffffffffffffffffffffffffffffffffff168173ffffffffffffffffffffffffffffffffffffffff167f8be0079c531659141344cd1fd0a4f28419497f9722a3daafe3b4186f6b6457e060405160405180910390a350565b600c60069054906101000a900463ffffffff1681565b600a5481565b60006005828154811061101257611011612aeb565b5b906000526020600020906004020160030160009054906101000a900460ff16611070576040517f08c379a000000000000000000000000000000000000000000000000000000000815260040161106790612b66565b60405180910390fd5b6006600083815260200190815260200160002060020160009054906101000a900460ff16156110d4576040517f08c379a00000000000000000000000000000000000000000000000000000000081526004016110cb90613018565b60405180910390fd5b600660008381526020019081526020016000206001015443106110fa576000905061111f565b43600660008481526020019081526020016000206001015461111c919061319c565b90505b919050565b60008060009054906101000a900473ffffffffffffffffffffffffffffffffffffffff16905090565b611155611124565b73ffffffffffffffffffffffffffffffffffffffff163373ffffffffffffffffffffffffffffffffffffffff16141580156111de5750600260009054906101000a900473ffffffffffffffffffffffffffffffffffffffff1673ffffffffffffffffffffffffffffffffffffffff163373ffffffffffffffffffffffffffffffffffffffff1614155b1561124d57336111ec611124565b600260009054906101000a900473ffffffffffffffffffffffffffffffffffffffff166040517f061db9c1000000000000000000000000000000000000000000000000000000008152600401611244939291906131d0565b60405180910390fd5b600073ffffffffffffffffffffffffffffffffffffffff168173ffffffffffffffffffffffffffffffffffffffff16036112b3576040517fd92e233d00000000000000000000000000000000000000000000000000000000815260040160405180910390fd5b80600260006101000a81548173ffffffffffffffffffffffffffffffffffffffff021916908373ffffffffffffffffffffffffffffffffffffffff1602179055507fd1a6a14209a385a964d036e404cb5cfb71f4000cdb03c9366292430787261be68160405161132391906127cc565b60405180910390a150565b600260009054906101000a900473ffffffffffffffffffffffffffffffffffffffff1681565b60096020528060005260406000206000915090508060000160009054906101000a900460ff16908060000160019054906101000a900460ff16905082565b600c60049054906101000a900461ffff1681565b6113ae611a28565b806006600082815260200190815260200160002060010154431015611408576040517f08c379a00000000000000000000000000000000000000000000000000000000081526004016113ff90613253565b60405180910390fd5b611410611f4a565b6006600083815260200190815260200160002060020160009054906101000a900460ff1615611474576040517f08c379a000000000000000000000000000000000000000000000000000000000815260040161146b906132e5565b60405180910390fd5b60016006600084815260200190815260200160002060020160006101000a81548160ff0219169083151502179055506006600083815260200190815260200160002060020160019054906101000a900473ffffffffffffffffffffffffffffffffffffffff1660076000600585815481106114f2576114f1612aeb565b5b906000526020600020906004020160000154815260200190815260200160002060006101000a81548173ffffffffffffffffffffffffffffffffffffffff021916908373ffffffffffffffffffffffffffffffffffffffff1602179055507f534280d94ac3a03462fc087f31d64053279f624042a9ebb9178655ebb544e8e76006600084815260200190815260200160002060020160019054906101000a900473ffffffffffffffffffffffffffffffffffffffff166006600085815260200190815260200160002060030154600585815481106115d3576115d2612aeb565b5b906000526020600020906004020160000154600586815481106115f9576115f8612aeb565b5b906000526020600020906004020160010160405161161a9493929190613389565b60405180910390a1600460009054906101000a900473ffffffffffffffffffffffffffffffffffffffff1673ffffffffffffffffffffffffffffffffffffffff166342842e0e306006600086815260200190815260200160002060020160019054906101000a900473ffffffffffffffffffffffffffffffffffffffff16600586815481106116ac576116ab612aeb565b5b9060005260206000209060040201600001546040518463ffffffff1660e01b81526004016116dc939291906133d5565b600060405180830381600087803b1580156116f657600080fd5b505af115801561170a573d6000803e3d6000fd5b50505050611716611124565b73ffffffffffffffffffffffffffffffffffffffff166108fc60066000858152602001908152602001600020600301549081150290604051600060405180830381858888f19350505050158015611771573d6000803e3d6000fd5b5061177a611f90565b5050565b6005818154811061178e57600080fd5b90600052602060002090600402016000915090508060000154908060010180546117b790612ce2565b80601f01602080910402602001604051908101604052809291908181526020018280546117e390612ce2565b80156118305780601f1061180557610100808354040283529160200191611830565b820191906000526020600020905b81548152906001019060200180831161181357829003601f168201915b50505050509080600201805461184590612ce2565b80601f016020809104026020016040519081016040528092919081815260200182805461187190612ce2565b80156118be5780601f10611893576101008083540402835291602001916118be565b820191906000526020600020905b8154815290600101906020018083116118a157829003601f168201915b5050505050908060030160009054906101000a900460ff16905084565b600460009054906101000a900473ffffffffffffffffffffffffffffffffffffffff1681565b600060606000600960008581526020019081526020016000206040518060600160405290816000820160009054906101000a900460ff161515151581526020016000820160019054906101000a900460ff16151515158152602001600182018054806020026020016040519081016040528092919081815260200182805480156119aa57602002820191906000526020600020905b815481526020019060010190808311611996575b5050505050815250509050806000015181604001519250925050915091565b60076020528060005260406000206000915054906101000a900473ffffffffffffffffffffffffffffffffffffffff1681565b60086020528060005260406000206000915090505481565b611a1c611a28565b611a2581611f9a565b50565b60008054906101000a900473ffffffffffffffffffffffffffffffffffffffff1673ffffffffffffffffffffffffffffffffffffffff163373ffffffffffffffffffffffffffffffffffffffff1614611ab6576040517f08c379a0000000000000000000000000000000000000000000000000000000008152600401611aad90613458565b60405180910390fd5b565b6000600260009054906101000a900473ffffffffffffffffffffffffffffffffffffffff1673ffffffffffffffffffffffffffffffffffffffff16639b1c385e6040518060c00160405280600b548152602001600a548152602001600c60049054906101000a900461ffff1661ffff168152602001600c60009054906101000a900463ffffffff1663ffffffff168152602001600c60069054906101000a900463ffffffff1663ffffffff168152602001611b836040518060200160405280600015158152506120c6565b8152506040518263ffffffff1660e01b8152600401611ba29190613583565b6020604051808303816000875af1158015611bc1573d6000803e3d6000fd5b505050506040513d601f19601f82011682018060405250810190611be59190612c86565b90506040518060600160405280600015158152602001600115158152602001600067ffffffffffffffff811115611c1f57611c1e612569565b5b604051908082528060200260200182016040528015611c4d5781602001602082028036833780820191505090505b508152506009600083815260200190815260200160002060008201518160000160006101000a81548160ff02191690831515021790555060208201518160000160016101000a81548160ff0219169083151502179055506040820151816001019080519060200190611cc092919061215e565b509050508160086000838152602001908152602001600020819055507fcc58b13ad3eab50626c6a6300b1d139cd6ebb1688a7cced9461c2f7e762665ee81600c60069054906101000a900463ffffffff16604051611d1f9291906135a5565b60405180910390a15050565b6009600084815260200190815260200160002060000160019054906101000a900460ff16611d8e576040517f08c379a0000000000000000000000000000000000000000000000000000000008152600401611d859061361a565b60405180910390fd5b60016009600085815260200190815260200160002060000160006101000a81548160ff0219169083151502179055508181600960008681526020019081526020016000206001019190611de29291906121ab565b507ffe2e2d779dba245964d4e3ef9b994be63856fd568bf7d3ca9e224755cb1bd54d838383604051611e16939291906136a4565b60405180910390a16000600860008581526020019081526020016000205490506000600b84846000818110611e4e57611e4d612aeb565b5b90506020020135611e5f9190613705565b6050611e6b91906130d3565b9050806006600084815260200190815260200160002060000154611e8f91906130d3565b60066000848152602001908152602001600020600101819055507f6629ad87443640d3f7c53724eff1bf0dd5350f7a733e58cfded9519910cf2db5600660008481526020019081526020016000206001015460058481548110611ef557611ef4612aeb565b5b90600052602060002090600402016000015460058581548110611f1b57611f1a612aeb565b5b9060005260206000209060040201600101604051611f3b93929190613736565b60405180910390a15050505050565b600260035403611f86576040517f3ee5aeb500000000000000000000000000000000000000000000000000000000815260040160405180910390fd5b6002600381905550565b6001600381905550565b3373ffffffffffffffffffffffffffffffffffffffff168173ffffffffffffffffffffffffffffffffffffffff1603612008576040517f08c379a0000000000000000000000000000000000000000000000000000000008152600401611fff906137c0565b60405180910390fd5b80600160006101000a81548173ffffffffffffffffffffffffffffffffffffffff021916908373ffffffffffffffffffffffffffffffffffffffff1602179055508073ffffffffffffffffffffffffffffffffffffffff1660008054906101000a900473ffffffffffffffffffffffffffffffffffffffff1673ffffffffffffffffffffffffffffffffffffffff167fed8889f560326eb138920d842192f0eb3dd22b4f139c87a2c57538e05bae127860405160405180910390a350565b60607f92fd13387c7fe7befbc38d303d6468778fb9731bc4583f17d92989c6fcfdeaaa826040516024016120fa919061380b565b604051602081830303815290604052907bffffffffffffffffffffffffffffffffffffffffffffffffffffffff19166020820180517bffffffffffffffffffffffffffffffffffffffffffffffffffffffff83818316178352505050509050919050565b82805482825590600052602060002090810192821561219a579160200282015b8281111561219957825182559160200191906001019061217e565b5b5090506121a791906121f8565b5090565b8280548282559060005260206000209081019282156121e7579160200282015b828111156121e65782358255916020019190600101906121cb565b5b5090506121f491906121f8565b5090565b5b808211156122115760008160009055506001016121f9565b5090565b6000604051905090565b600080fd5b600080fd5b6000819050919050565b61223c81612229565b811461224757600080fd5b50565b60008135905061225981612233565b92915050565b6000602082840312156122755761227461221f565b5b60006122838482850161224a565b91505092915050565b600073ffffffffffffffffffffffffffffffffffffffff82169050919050565b60006122b78261228c565b9050919050565b6122c7816122ac565b81146122d257600080fd5b50565b6000813590506122e4816122be565b92915050565b600080fd5b600080fd5b600080fd5b60008083601f84011261230f5761230e6122ea565b5b8235905067ffffffffffffffff81111561232c5761232b6122ef565b5b602083019150836001820283011115612348576123476122f4565b5b9250929050565b60008060008060006080868803121561236b5761236a61221f565b5b6000612379888289016122d5565b955050602061238a888289016122d5565b945050604061239b8882890161224a565b935050606086013567ffffffffffffffff8111156123bc576123bb612224565b5b6123c8888289016122f9565b92509250509295509295909350565b60007fffffffff0000000000000000000000000000000000000000000000000000000082169050919050565b61240c816123d7565b82525050565b60006020820190506124276000830184612403565b92915050565b60008083601f840112612443576124426122ea565b5b8235905067ffffffffffffffff8111156124605761245f6122ef565b5b60208301915083602082028301111561247c5761247b6122f4565b5b9250929050565b60008060006040848603121561249c5761249b61221f565b5b60006124aa8682870161224a565b935050602084013567ffffffffffffffff8111156124cb576124ca612224565b5b6124d78682870161242d565b92509250509250925092565b600063ffffffff82169050919050565b6124fc816124e3565b82525050565b600060208201905061251760008301846124f3565b92915050565b60008115159050919050565b6125328161251d565b82525050565b600060208201905061254d6000830184612529565b92915050565b600080fd5b6000601f19601f8301169050919050565b7f4e487b7100000000000000000000000000000000000000000000000000000000600052604160045260246000fd5b6125a182612558565b810181811067ffffffffffffffff821117156125c0576125bf612569565b5b80604052505050565b60006125d3612215565b90506125df8282612598565b919050565b600067ffffffffffffffff8211156125ff576125fe612569565b5b61260882612558565b9050602081019050919050565b82818337600083830152505050565b6000612637612632846125e4565b6125c9565b90508281526020810184848401111561265357612652612553565b5b61265e848285612615565b509392505050565b600082601f83011261267b5761267a6122ea565b5b813561268b848260208601612624565b91505092915050565b600080604083850312156126ab576126aa61221f565b5b600083013567ffffffffffffffff8111156126c9576126c8612224565b5b6126d585828601612666565b925050602083013567ffffffffffffffff8111156126f6576126f5612224565b5b61270285828601612666565b9150509250929050565b61271581612229565b82525050565b612724816122ac565b82525050565b600060a08201905061273f600083018861270c565b61274c602083018761270c565b6127596040830186612529565b612766606083018561271b565b612773608083018461270c565b9695505050505050565b6000819050919050565b6127908161277d565b82525050565b60006020820190506127ab6000830184612787565b92915050565b60006020820190506127c6600083018461270c565b92915050565b60006020820190506127e1600083018461271b565b92915050565b6000602082840312156127fd576127fc61221f565b5b600061280b848285016122d5565b91505092915050565b6000819050919050565b600061283961283461282f8461228c565b612814565b61228c565b9050919050565b600061284b8261281e565b9050919050565b600061285d82612840565b9050919050565b61286d81612852565b82525050565b60006020820190506128886000830184612864565b92915050565b60006040820190506128a36000830185612529565b6128b06020830184612529565b9392505050565b600061ffff82169050919050565b6128ce816128b7565b82525050565b60006020820190506128e960008301846128c5565b92915050565b600081519050919050565b600082825260208201905092915050565b60005b8381101561292957808201518184015260208101905061290e565b60008484015250505050565b6000612940826128ef565b61294a81856128fa565b935061295a81856020860161290b565b61296381612558565b840191505092915050565b6000608082019050612983600083018761270c565b81810360208301526129958186612935565b905081810360408301526129a98185612935565b90506129b86060830184612529565b95945050505050565b60006129cc82612840565b9050919050565b6129dc816129c1565b82525050565b60006020820190506129f760008301846129d3565b92915050565b600081519050919050565b600082825260208201905092915050565b6000819050602082019050919050565b612a3281612229565b82525050565b6000612a448383612a29565b60208301905092915050565b6000602082019050919050565b6000612a68826129fd565b612a728185612a08565b9350612a7d83612a19565b8060005b83811015612aae578151612a958882612a38565b9750612aa083612a50565b925050600181019050612a81565b5085935050505092915050565b6000604082019050612ad06000830185612529565b8181036020830152612ae28184612a5d565b90509392505050565b7f4e487b7100000000000000000000000000000000000000000000000000000000600052603260045260246000fd5b7f4974656d206e6f74206c69737465640000000000000000000000000000000000600082015250565b6000612b50600f836128fa565b9150612b5b82612b1a565b602082019050919050565b60006020820190508181036000830152612b7f81612b43565b9050919050565b6000604082019050612b9b600083018561271b565b612ba8602083018461271b565b9392505050565b7f596f75206861766520776f6e2074686973206974656d204e465420696e20616e60008201527f2041756374696f6e000000000000000000000000000000000000000000000000602082015250565b6000612c0b6028836128fa565b9150612c1682612baf565b604082019050919050565b60006020820190508181036000830152612c3a81612bfe565b9050919050565b6000604082019050612c56600083018561271b565b8181036020830152612c688184612935565b90509392505050565b600081519050612c8081612233565b92915050565b600060208284031215612c9c57612c9b61221f565b5b6000612caa84828501612c71565b91505092915050565b7f4e487b7100000000000000000000000000000000000000000000000000000000600052602260045260246000fd5b60006002820490506001821680612cfa57607f821691505b602082108103612d0d57612d0c612cb3565b5b50919050565b60008190508160005260206000209050919050565b60006020601f8301049050919050565b600082821b905092915050565b600060088302612d757fffffffffffffffffffffffffffffffffffffffffffffffffffffffffffffffff82612d38565b612d7f8683612d38565b95508019841693508086168417925050509392505050565b6000612db2612dad612da884612229565b612814565b612229565b9050919050565b6000819050919050565b612dcc83612d97565b612de0612dd882612db9565b848454612d45565b825550505050565b600090565b612df5612de8565b612e00818484612dc3565b505050565b5b81811015612e2457612e19600082612ded565b600181019050612e06565b5050565b601f821115612e6957612e3a81612d13565b612e4384612d28565b81016020851015612e52578190505b612e66612e5e85612d28565b830182612e05565b50505b505050565b600082821c905092915050565b6000612e8c60001984600802612e6e565b1980831691505092915050565b6000612ea58383612e7b565b9150826002028217905092915050565b612ebe826128ef565b67ffffffffffffffff811115612ed757612ed6612569565b5b612ee18254612ce2565b612eec828285612e28565b600060209050601f831160018114612f1f5760008415612f0d578287015190505b612f178582612e99565b865550612f7f565b601f198416612f2d86612d13565b60005b82811015612f5557848901518255600182019150602085019450602081019050612f30565b86831015612f725784890151612f6e601f891682612e7b565b8355505b6001600288020188555050505b505050505050565b6000606082019050612f9c600083018661270c565b8181036020830152612fae8185612935565b90508181036040830152612fc28184612935565b9050949350505050565b7f41756374696f6e20616c726561647920656e6465640000000000000000000000600082015250565b60006130026015836128fa565b915061300d82612fcc565b602082019050919050565b6000602082019050818103600083015261303181612ff5565b9050919050565b7f546865726520616c726561647920697320612068696768657220626964000000600082015250565b600061306e601d836128fa565b915061307982613038565b602082019050919050565b6000602082019050818103600083015261309d81613061565b9050919050565b7f4e487b7100000000000000000000000000000000000000000000000000000000600052601160045260246000fd5b60006130de82612229565b91506130e983612229565b9250828201905080821115613101576131006130a4565b5b92915050565b600060408201905061311c600083018561271b565b613129602083018461270c565b9392505050565b7f4d7573742062652070726f706f736564206f776e657200000000000000000000600082015250565b60006131666016836128fa565b915061317182613130565b602082019050919050565b6000602082019050818103600083015261319581613159565b9050919050565b60006131a782612229565b91506131b283612229565b92508282039050818111156131ca576131c96130a4565b5b92915050565b60006060820190506131e5600083018661271b565b6131f2602083018561271b565b6131ff604083018461271b565b949350505050565b7f41756374696f6e206e6f742079657420656e6465640000000000000000000000600082015250565b600061323d6015836128fa565b915061324882613207565b602082019050919050565b6000602082019050818103600083015261326c81613230565b9050919050565b7f41756374696f6e20656e642068617320616c7265616479206265656e2063616c60008201527f6c656420666f722074686973206974656d000000000000000000000000000000602082015250565b60006132cf6031836128fa565b91506132da82613273565b604082019050919050565b600060208201905081810360008301526132fe816132c2565b9050919050565b6000815461331281612ce2565b61331c81866128fa565b94506001821660008114613337576001811461334d57613380565b60ff198316865281151560200286019350613380565b61335685612d13565b60005b8381101561337857815481890152600182019150602081019050613359565b808801955050505b50505092915050565b600060808201905061339e600083018761271b565b6133ab602083018661270c565b6133b8604083018561270c565b81810360608301526133ca8184613305565b905095945050505050565b60006060820190506133ea600083018661271b565b6133f7602083018561271b565b613404604083018461270c565b949350505050565b7f4f6e6c792063616c6c61626c65206279206f776e657200000000000000000000600082015250565b60006134426016836128fa565b915061344d8261340c565b602082019050919050565b6000602082019050818103600083015261347181613435565b9050919050565b6134818161277d565b82525050565b613490816128b7565b82525050565b61349f816124e3565b82525050565b600081519050919050565b600082825260208201905092915050565b60006134cc826134a5565b6134d681856134b0565b93506134e681856020860161290b565b6134ef81612558565b840191505092915050565b600060c0830160008301516135126000860182613478565b5060208301516135256020860182612a29565b5060408301516135386040860182613487565b50606083015161354b6060860182613496565b50608083015161355e6080860182613496565b5060a083015184820360a086015261357682826134c1565b9150508091505092915050565b6000602082019050818103600083015261359d81846134fa565b905092915050565b60006040820190506135ba600083018561270c565b6135c760208301846124f3565b9392505050565b7f52657175657374206e6f7420666f756e64000000000000000000000000000000600082015250565b60006136046011836128fa565b915061360f826135ce565b602082019050919050565b60006020820190508181036000830152613633816135f7565b9050919050565b600080fd5b82818337505050565b60006136548385612a08565b93507f07ffffffffffffffffffffffffffffffffffffffffffffffffffffffffffffff8311156136875761368661363a565b5b60208302925061369883858461363f565b82840190509392505050565b60006040820190506136b9600083018661270c565b81810360208301526136cc818486613648565b9050949350505050565b7f4e487b7100000000000000000000000000000000000000000000000000000000600052601260045260246000fd5b600061371082612229565b915061371b83612229565b92508261372b5761372a6136d6565b5b828206905092915050565b600060608201905061374b600083018661270c565b613758602083018561270c565b818103604083015261376a8184613305565b9050949350505050565b7f43616e6e6f74207472616e7366657220746f2073656c66000000000000000000600082015250565b60006137aa6017836128fa565b91506137b582613774565b602082019050919050565b600060208201905081810360008301526137d98161379d565b9050919050565b6137e98161251d565b82525050565b60208201600082015161380560008501826137e0565b50505050565b600060208201905061382060008301846137ef565b9291505056fea26469706673582212200d109cdfb330a7622085cb72959b2882fa3b32713a36159f97d18e4139bf302064736f6c63430008140033",
  "linkReferences": {},
  "deployedLinkReferences": {}
}